{
  "contractName": "MyContract",
  "abi": [
    {
      "constant": true,
      "inputs": [
        {
          "name": "x",
          "type": "bytes32"
        }
      ],
      "name": "bytes32ToString",
      "outputs": [
        {
          "name": "",
          "type": "string"
        }
      ],
      "payable": false,
      "stateMutability": "view",
      "type": "function"
    },
    {
      "constant": false,
      "inputs": [
        {
          "name": "data",
          "type": "bytes32[]"
        }
      ],
      "name": "bytes32ArrayToString",
      "outputs": [
        {
          "name": "",
          "type": "string"
        }
      ],
      "payable": false,
      "stateMutability": "nonpayable",
      "type": "function"
    },
    {
      "inputs": [],
      "payable": false,
      "stateMutability": "nonpayable",
      "type": "constructor"
    }
  ],
  "bytecode": "0x60606040527f666f6f0000000000000000000000000000000000000000000000000000000000600090600019169055341561003957600080fd5b610057600054610072640100000000026101c4176401000000009004565b6001908051906020019061006c92919061025f565b5061032c565b61007a6102df565b6100826102f3565b600080600061008f6102f3565b602060405180591061009e5750595b9080825280601f01601f1916602001820160405250945060009350600092505b602083101561017c578260080260020a876001900402600102915060007f010000000000000000000000000000000000000000000000000000000000000002827effffffffffffffffffffffffffffffffffffffffffffffffffffffffffffff191614151561016f5781858581518110151561013657fe5b9060200101907effffffffffffffffffffffffffffffffffffffffffffffffffffffffffffff1916908160001a90535083806001019450505b82806001019350506100be565b8360405180591061018a5750595b9080825280601f01601f19166020018201604052509050600092505b838310156102525784838151811015156101bc57fe5b9060200101517f010000000000000000000000000000000000000000000000000000000000000090047f010000000000000000000000000000000000000000000000000000000000000002818481518110151561021557fe5b9060200101907effffffffffffffffffffffffffffffffffffffffffffffffffffffffffffff1916908160001a90535082806001019350506101a6565b8095505050505050919050565b828054600181600116156101000203166002900490600052602060002090601f016020900481019282601f106102a057805160ff19168380011785556102ce565b828001600101855582156102ce579182015b828111156102cd5782518255916020019190600101906102b2565b5b5090506102db9190610307565b5090565b602060405190810160405280600081525090565b602060405190810160405280600081525090565b61032991905b8082111561032557600081600090555060010161030d565b5090565b90565b6106238061033b6000396000f30060606040526004361061004c576000357c0100000000000000000000000000000000000000000000000000000000900463ffffffff1680639201de55146100515780639cbc87a3146100f1575b600080fd5b341561005c57600080fd5b6100766004808035600019169060200190919050506101c4565b6040518080602001828103825283818151815260200191508051906020019080838360005b838110156100b657808201518184015260208101905061009b565b50505050905090810190601f1680156100e35780820380516001836020036101000a031916815260200191505b509250505060405180910390f35b34156100fc57600080fd5b6101496004808035906020019082018035906020019080806020026020016040519081016040528093929190818152602001838360200280828437820191505050505050919050506103b1565b6040518080602001828103825283818151815260200191508051906020019080838360005b8381101561018957808201518184015260208101905061016e565b50505050905090810190601f1680156101b65780820380516001836020036101000a031916815260200191505b509250505060405180910390f35b6101cc6105cf565b6101d46105e3565b60008060006101e16105e3565b60206040518059106101f05750595b9080825280601f01601f1916602001820160405250945060009350600092505b60208310156102ce578260080260020a876001900402600102915060007f010000000000000000000000000000000000000000000000000000000000000002827effffffffffffffffffffffffffffffffffffffffffffffffffffffffffffff19161415156102c15781858581518110151561028857fe5b9060200101907effffffffffffffffffffffffffffffffffffffffffffffffffffffffffffff1916908160001a90535083806001019450505b8280600101935050610210565b836040518059106102dc5750595b9080825280601f01601f19166020018201604052509050600092505b838310156103a457848381518110151561030e57fe5b9060200101517f010000000000000000000000000000000000000000000000000000000000000090047f010000000000000000000000000000000000000000000000000000000000000002818481518110151561036757fe5b9060200101907effffffffffffffffffffffffffffffffffffffffffffffffffffffffffffff1916908160001a90535082806001019350506102f8565b8095505050505050919050565b6103b96105cf565b6103c16105e3565b6000806000806103cf6105e3565b60208851026040518059106103e15750595b9080825280601f01601f19166020018201604052509550600093505b87518410156104eb57600092505b60208310156104de578260080260020a888581518110151561042957fe5b906020019060200201516001900402600102915060007f010000000000000000000000000000000000000000000000000000000000000002827effffffffffffffffffffffffffffffffffffffffffffffffffffffffffffff19161415156104d15781868681518110151561049a57fe5b9060200101907effffffffffffffffffffffffffffffffffffffffffffffffffffffffffffff1916908160001a9053506001850194505b828060010193505061040b565b83806001019450506103fd565b846040518059106104f95750595b9080825280601f01601f19166020018201604052509050600093505b848410156105c157858481518110151561052b57fe5b9060200101517f010000000000000000000000000000000000000000000000000000000000000090047f010000000000000000000000000000000000000000000000000000000000000002818581518110151561058457fe5b9060200101907effffffffffffffffffffffffffffffffffffffffffffffffffffffffffffff1916908160001a9053508380600101945050610515565b809650505050505050919050565b602060405190810160405280600081525090565b6020604051908101604052806000815250905600a165627a7a72305820f1969fa2b0fbd22241d10d3ad052ef75a39dbdbe2e4808e299d590cfc1c317d60029",
  "source": "pragma solidity ^0.4.4;\n\n// Source: https://ethereum.stackexchange.com/a/2834/5093\n\ncontract MyContract {\n  bytes32 bts = \"foo\";\n  string str;\n\n  function MyContract() {\n    str = bytes32ToString(bts);\n  }\n\n  function bytes32ToString(bytes32 x) constant returns (string) {\n    bytes memory bytesString = new bytes(32);\n    uint charCount = 0;\n    for (uint j = 0; j < 32; j++) {\n      byte char = byte(bytes32(uint(x) * 2 ** (8 * j)));\n      if (char != 0) {\n        bytesString[charCount] = char;\n        charCount++;\n      }\n    }\n    bytes memory bytesStringTrimmed = new bytes(charCount);\n    for (j = 0; j < charCount; j++) {\n      bytesStringTrimmed[j] = bytesString[j];\n    }\n    return string(bytesStringTrimmed);\n  }\n\n  function bytes32ArrayToString(bytes32[] data) returns (string) {\n    bytes memory bytesString = new bytes(data.length * 32);\n    uint urlLength;\n    for (uint i=0; i<data.length; i++) {\n      for (uint j=0; j<32; j++) {\n        byte char = byte(bytes32(uint(data[i]) * 2 ** (8 * j)));\n        if (char != 0) {\n          bytesString[urlLength] = char;\n          urlLength += 1;\n        }\n      }\n    }\n    bytes memory bytesStringTrimmed = new bytes(urlLength);\n    for (i=0; i<urlLength; i++) {\n      bytesStringTrimmed[i] = bytesString[i];\n    }\n    return string(bytesStringTrimmed);\n  }\n}\n",
  "sourcePath": "/Users/mota/Sandbox/solidity-idiosyncrasies/contracts/bytes32ToString.sol",
  "compiler": {
    "name": "solc",
    "version": "0.4.18+commit.9cf6e910.Emscripten.clang"
  },
  "schemaVersion": "1.0.1",
  "updatedAt": "2018-01-20T00:19:40.118Z"
}