{
  "contractName": "SafeMath",
  "abi": [
    {
      "constant": false,
      "inputs": [
        {
          "name": "x",
          "type": "uint256"
        },
        {
          "name": "y",
          "type": "uint256"
        }
      ],
      "name": "safeMult",
      "outputs": [
        {
          "name": "",
          "type": "uint256"
        }
      ],
      "payable": false,
      "stateMutability": "nonpayable",
      "type": "function"
    },
    {
      "constant": false,
      "inputs": [
        {
          "name": "x",
          "type": "uint256"
        },
        {
          "name": "y",
          "type": "uint256"
        }
      ],
      "name": "safeSubtract",
      "outputs": [
        {
          "name": "",
          "type": "uint256"
        }
      ],
      "payable": false,
      "stateMutability": "nonpayable",
      "type": "function"
    },
    {
      "constant": false,
      "inputs": [
        {
          "name": "x",
          "type": "uint256"
        },
        {
          "name": "y",
          "type": "uint256"
        }
      ],
      "name": "safeAdd",
      "outputs": [
        {
          "name": "",
          "type": "uint256"
        }
      ],
      "payable": false,
      "stateMutability": "nonpayable",
      "type": "function"
    }
  ],
  "bytecode": "0x6060604052341561000f57600080fd5b6101c38061001e6000396000f300606060405260043610610057576000357c0100000000000000000000000000000000000000000000000000000000900463ffffffff16806364b3302d1461005c578063d30fbd0d1461009c578063e6cb9013146100dc575b600080fd5b341561006757600080fd5b610086600480803590602001909190803590602001909190505061011c565b6040518082815260200191505060405180910390f35b34156100a757600080fd5b6100c6600480803590602001909190803590602001909190505061014f565b6040518082815260200191505060405180910390f35b34156100e757600080fd5b610106600480803590602001909190803590602001909190505061016d565b6040518082815260200191505060405180910390f35b6000808284029050600084148061013d575082848281151561013a57fe5b04145b151561014557fe5b8091505092915050565b60008082841015151561015e57fe5b82840390508091505092915050565b60008082840190508381101580156101855750828110155b151561018d57fe5b80915050929150505600a165627a7a72305820b2ea56027fbf06e4f08ad6e797bd738b7bc46f7c39965a69ee9d8ccffca8ff1e0029",
  "source": "pragma solidity ^0.4.4;\n\ncontract SafeMath {\n  function safeAdd(uint256 x, uint256 y) returns(uint256) {\n    uint256 z = x + y;\n    assert((z >= x) && (z >= y));\n    return z;\n  }\n\n  function safeSubtract(uint256 x, uint256 y) returns(uint256) {\n    assert(x >= y);\n    uint256 z = x - y;\n    return z;\n  }\n\n  function safeMult(uint256 x, uint256 y) returns(uint256) {\n    uint256 z = x * y;\n    assert((x == 0)||(z/x == y));\n    return z;\n  }\n}\n",
  "sourcePath": "/Users/mota/Sandbox/solidity-idiosyncrasies/contracts/SafeMath.sol",
  "compiler": {
    "name": "solc",
    "version": "0.4.18+commit.9cf6e910.Emscripten.clang"
  },
  "schemaVersion": "1.0.1",
  "updatedAt": "2018-01-20T00:19:40.119Z"
}